S0190000536D61727450617274734B6F7A706F6E742E7372656305
S11300005BC145C474C173C172C171C170C16FC198
S11300106EC16EC16CC152C56AC169C168C167C194
S113002066C10BC964C122C9B5C9B4C9B3C9B2C9CF
S1130030B1C9B0C9AFC91AC9ADC9ACC9ABC9AAC99C
S1130040A9C9A8C9A7C928C9A5C9A4C9A3C9A2C9B6
S1130050A1C9A0C99FC941C99DC99CC99BC99AC9C5
S113006099C998C997C93CC995C994C993C992C9F2
S113007091C990C98FC931C98DC98CC98BC98AC925
S113008089C988C987C986C985C984C983C982C9F8
S113009081C980C97FC94AC97DC97CC97BC97AC95C
S11300A079C978C977C976C975C974C973C972C958
S11300B071C970C96FC941C90000C1C081C1400183
S11300C001C3C003800241C201C6C006800741C704
S11300D00005C1C581C4400401CCC00C800D41CDD4
S11300E0000FC1CF81CE400E000AC1CA81CB400BA4
S11300F001C9C009800841C801D8C018801941D974
S1130100001BC1DB81DA401A001EC1DE81DF401F03
S113011001DDC01D801C41DC0014C1D481D5401513
S113012001D7C017801641D601D2C012801341D323
S11301300011C1D181D0401001F0C030803141F1B3
S11301400033C1F381F240320036C1F681F7403703
S113015001F5C035803441F4003CC1FC81FD403DD3
S113016001FFC03F803E41FE01FAC03A803B41FBA3
S11301700039C1F981F840380028C1E881E94029F3
S113018001EBC02B802A41EA01EEC02E802F41EF03
S1130190002DC1ED81EC402C01E4C024802541E513
S11301A00027C1E781E640260022C1E281E3402323
S11301B001E1C021802041E001A0C060806141A133
S11301C00063C1A381A240620066C1A681A7406703
S11301D001A5C065806441A4006CC1AC81AD406DD3
S11301E001AFC06F806E41AE01AAC06A806B41ABA3
S11301F00069C1A981A840680078C1B881B9407973
S113020001BBC07B807A41BA01BEC07E807F41BF02
S1130210007DC1BD81BC407C01B4C074807541B512
S11302200077C1B781B640760072C1B281B3407322
S113023001B1C071807041B00050C19081914051B2
S11302400193C053805241920196C0568057419702
S11302500055C19581944054019CC05C805D419DD2
S1130260005FC19F819E405E005AC19A819B405BA2
S11302700199C059805841980188C04880494189F2
S1130280004BC18B818A404A004EC18E818F404F02
S1130290018DC04D804C418C0044C1848185404512
S11302A00187C047804641860182C0428043418322
S11302B00041C1818180404011241FBECFE5D4E0BC
S11302C0DEBFCDBF10E0A0E6B0E0EAEEF7E102C089
S11302D005900D92AC37B107D9F721E0ACE7B0E057
S11302E001C01D92AA37B207E1F748D47CCA88CE70
S11302F01F920F920FB60F9211242F933F934F9397
S11303005F936F937F938F939F93AF93BF93EF9379
S1130310FF938091600090916100813894404CF487
S113032080916000909161000196909361008093A8
S1130330600080918600882309F473C0809187004F
S11303408F5F809387009091870080916700981752
S113035008F462C080918A00882309F449C080911E
S11303608B00209188003091890040E1849FC00176
S1130370112428173907E4F58091880090918900A9
S113038099230CF40F96FC01F595E795F595E795FF
S1130390F595E795F595E795EE0FFF1FE25CFE4FA7
S11303A02081318180918800909189008F709078AC
S11303B0992324F40197806F9F6F019641E050E0E8
S11303C0BA0102C0660F771F8A95E2F7CB01822338
S11303D09323892B11F0979A01C0979880918800F4
S11303E0909189000196909389008093880012C0AF
S11303F080918B00209188003091890070E1879F63
S1130400C0011124281739072CF0979810928A00FC
S1130410109286001092870010926500109264007A
S113042036C1809187008F5F80938700869B11C0BF
S113043080918E0090918F0080369D4674F4809157
S11304408E0090918F00019690938F0080938E0080
S113045004C010928F0010928E008091670020914A
S11304608E0030918F0090E0AC01440F551F880F2F
S1130470991F880F991F880F991F840F951F821742
S113048093073CF480918D00811103C081E0809337
S11304908D0080918D00813059F5869929C08FEFA8
S11304A09FE790939E0080939D008FE090E090934F
S11304B0910080939000809166008F3F19F480939F
S11304C0680003C085E080936800809167008930EC
S11304D038F08091670086958F5F8093870005C010
S11304E08091670086958093870082E080938D00D9
S11304F080918D00823009F0CAC09091870080916C
S11305006700981708F4C3C0869B37C020919000F9
S113051030919100809190009091910099230CF476
S11305200F96959587959595879595958795959526
S11305308795FC01EE0FFF1FE356FF4F4081518169
S11305402F703078332334F421503109206F3F6FFA
S11305502F5F3F4F61E070E0FB0102C0EE0FFF1F11
S11305602A95E2F79F01242B352B880F991FFC0154
S1130570E356FF4F3183208338C02091900030919F
S11305809100809190009091910099230CF40F9622
S1130590959587959595879595958795959587953F
S11305A0FC01EE0FFF1FE356FF4F608171812F7036
S11305B03078332334F421503109206F3F6F2F5F9B
S11305C03F4F41E050E0FA0102C0EE0FFF1F2A95B1
S11305D0E2F79F012095309526233723880F991F32
S11305E0FC01E356FF4F318320838091900090916A
S11305F09100019690939100809390004091900017
S11306005091910020916800CA0199230CF40F962F
S113061095958795959587959595879595958795BE
S113062030E0821793071CF083E080938D00809163
S11306309000909191008097409728F480918C00CD
S1130640816080938C0080919000909191008054FF
S11306509109409748F4809166008F3F29F4809176
S11306608C00826080938C00809190009091910026
S113067080569109409748F4809166008F3F29F491
S113068080918C00846080938C001092870080910C
S11306907D008F5F80937D0080917D008A3508F412
S11306A05FC010927D0080919B0090919C00019608
S11306B090939C0080939B0060919B0070919C00A0
S11306C0072E000C880B990B77D72AE939E949E9F9
S11306D050E422D818162CF48FEF80936300109204
S11306E081006091930070E080E090E065D720E0A5
S11306F030E040E852E4C1D618162CF08091930003
S11307008F5F8093930060916B0070916C00072E53
S1130710000C880B990B50D72DEC3CEC4CEA52E4BE
S1130720ACD618164CF080916B0090916C00019639
S113073090936C0080936B0020916400309165006D
S11307408091840090918500821793074CF08091EA
S11307506400909165000196909365008093640015
S1130760FF91EF91BF91AF919F918F917F916F9185
S11307705F914F913F912F910F900FBE0F901F905B
S11307801895CF93DF934FE050E027E030E060E02E
S113079070E090E0A1E0B0E0FC01022E02C0F5950B
S11307A0E7950A94E2F7E0FF0AC0FD01042E02C0B7
S11307B0EE0FFF1F0A94E2F76E2B7F2B0BC0F9019B
S11307C0EE0FFF1FED0102C0CC0FDD1FEA95E2F72B
S11307D06C2B7D2B21503109425051092F3FDFEF03
S11307E03D07D1F6CB01DF91CF9108950F931F936D
S11307F0CF93DF9310927C0061E070E020E030E062
S1130800C0E0E1E0F0E0D1E000E010E0A901440F35
S1130810551FDF0102C0AA0FBB1F4A95E2F7AD01C5
S113082048235923452BA1F4AF01062E02C0440FDF
S1130830551F0A94E2F748235923452BC9F0AF0109
S1130840022E02C0440F551F0A94E2F7C42B12C0B3
S1130850AF01DF01062E02C0AA0FBB1F0A94E2F704
S1130860AB2B11F0402F512F48235923452B11F462
S1130870D0937C002F5F3F4F6E5F7F4F2830310550
S113088029F68C2FDF91CF911F910F9108951F921C
S11308900F920FB60F9211242F933F934F935F93B0
S11308A06F937F938F939F93AF93BF93EF93FF9334
S11308B06091930070E080E090E07ED620E030E02C
S11308C040E852E429D718163CF410929300829B16
S11308D003C081E080939200FF91EF91BF91AF91AB
S11308E09F918F917F916F915F914F913F912F9144
S11308F00F900FBE0F901F901895CF92DF92EF923A
S1130900FF926623D9F0DC01AC01460F511D80E053
S113091090E0292F33276D91FC01E627FF27EE0F86
S1130920FF1FE854FF4FC590D590E590F490C9019E
S11309308C259D25A417B50761F702C080E090E0DF
S1130940FF90EF90DF90CF90089581E08093860030
S1130950109289001092880080938A0008956F9203
S11309607F928F929F92AF92BF92CF92DF92EF923B
S1130970FF920F931F93CF93DF935C01962E642E07
S1130980722E832EEEE3F1E08FEF9FE79183808355
S113099081E191E1938382836623F9F0EE24EA9462
S11309A0E60EF12C8FEFE81AF80AEA0CFB1C85011D
S11309B082E090E06C01CA18DB08E601C00FD11F89
S11309C0F80181918F01DDDECC0FDD1FC25CDE4FAB
S11309D0998388830E151F0581F7611005C0692D61
S11309E0C5018BDF782E892EC92DD0E08E010E5FD4
S11309F01F4F872DC6DE000F111FF801E25CFE4F6A
S1130A00918380832396882DBCDECC0FDD1FC25CCE
S1130A10DE4F9983888384E0890D80938B0095DF72
S1130A20DF91CF911F910F91FF90EF90DF90CF90C6
S1130A30BF90AF909F908F907F906F9008955D9B33
S1130A40FECF8CB908950F931F93CF93DF93662342
S1130A5049F08C01EC01060F111D8991F0DFC017DC
S1130A60D107D9F7DF91CF911F910F9108953E9A45
S1130A7083E886B9089587E089B910BC80B5866893
S1130A8080BD8AB188698AB9089580916E0082B95F
S1130A9088E680B985E486BF83B7816083BF89B760
S1130AA0816089BF8BB780648BBF85B7816085BF48
S1130AB08F9AA39AE0DFDBDF789408951F920F9258
S1130AC00FB60F9211248F939F93EF93FF939091FE
S1130AD08100809163009817D0F4E0918100F0E0E8
S1130AE08CB1E850FF4F8083809181008F5F8093A9
S1130AF0810010929C0010929B0090918100809143
S1130B006300981304C080916300809380008091F7
S1130B108100823069F4E8EFF0E0908181819813DC
S1130B2005C08091F8008093630002C010926300B6
S1130B309091810080916300981718F081E0809370
S1130B407F00FF91EF919F918F910F900FBE0F90B7
S1130B501F9018958093F7006093980080912A0164
S1130B608093990010929A0085E986BF06B607FC27
S1130B70FDCF1092940085EA86BF0895CF93DF934A
S1130B80CDB7DEB765970FB6F894DEBF0FBECDBF05
S1130B907CDF0F2EFDE94F2EF0E05F2EF02D0F2E9F
S1130BA0F9ED6F2EF0E07F2EF02D9E012F5F3F4F69
S1130BB03F872E8799249A946A8A7B8A8E842F840D
S1130BC0888A298A222423940F2EFDE03F2EF02DBB
S1130BD080918C0080FF13C0F20182819381813166
S1130BE0914141F01092680010928D0010928F0094
S1130BF010928E0080918C008E7F80938C00809167
S1130C008C0081FF1CC0F20184819581EFDD182FD7
S1130C10F20186819781EADD212F30E0382B2D3CCB
S1130C203B4A41F01092680010928D0010928F00A0
S1130C3010928E0080918C008D7F80938C00809127
S1130C408C0082FF1CC0F20180859185CFDD182FB6
S1130C50F20182859385CADD811304C08C5F809381
S1130C60680008C01092680010928D0010928F00E6
S1130C7010928E0080918C008B7F80938C00209149
S1130C80640030916500809184009091850028175C
S1130C903907E4F0809166008A3058F48091660048
S1130CA08F5F8093660051DE10926500109264009D
S1130CB00DC0809166008F3F49F09092660025E355
S1130CC0F301208320927E001092620080919200B2
S1130CD08823C9F180918A00811135C039823A8212
S1130CE03AE03B838DEC8C839BEA9D8388E08E8382
S1130CF08F8318868091690090916A009C01222755
S1130D003F70932F906299878A87AD9B02C01B86A0
S1130D1001C02B866BE088899989EFDD8C879D87DC
S1130D20E889F98980E090E02191DC01A850BF4F67
S1130D302C9301968D309105B9F730928000209262
S1130D407F001092920080918D00833009F077C06B
S1130D50809166008A3008F070C020916400309160
S1130D6065008091840090918500281739070CF064
S1130D7064C0EDB7FEB7FD8BEC8BC0906800D12C3E
S1130D80C60102972DB73EB7281B390B0FB6F8944E
S1130D903EBF0FBE2DBF8DB79EB701965C0193E099
S1130DA0C916D104B4F07501E2E0EE0EF11C02E0C4
S1130DB010E0F801EE0FFF1FE356FF4F8081918191
S1130DC015DDF70181937F010F5F1F4FC016D10618
S1130DD081F7F50162814091820050918300238163
S1130DE030E081E090E02417350711F080E090E0D6
S1130DF0262F2F70922B892BC9F0607F6038B1F4B5
S1130E00F5018481813051F49092660082E3F3010C
S1130E10808320927E001092620008C0809184003A
S1130E209091850090936500809364002C893D899E
S1130E300FB6F8943EBF0FBE2DBF10928D00809167
S1130E406B0090916C008738994749F160916B0071
S1130E5070916C00072E000C880B990BADD32DEC10
S1130E603CEC4CEA52E458D48823CCF087E899E768
S1130E7090936C0080936B0085E2F3018083118270
S1130E801282138284E080937E001092620080912B
S1130E906000909161008038944074F41EC0809189
S1130EA062008F3FD1F020916000309161002038C2
S1130EB034409CF0863078F460917E008A899B8966
S1130EC0C2DD809162008F5F8093620010926100A6
S1130ED01092600002C09092620080917F0088238B
S1130EE009F417C1CDB6DEB680908000082D10E05D
S1130EF0EDB7FEB7E01BF10B0FB6F894FEBF0FBEC3
S1130F00EDBF2DB73EB72F5F3F4F79019801101603
S1130F1011066CF4F70180E090E0A901DC01A8500F
S1130F20BF4F3C913193019684179507B9F7F701A8
S1130F308281833159F4F4E08F1212C0F701838166
S1130F40813009F0DFC090926200DCC08F3F41F431
S1130F50F3E08F1205C06CE08FE690E074DDD2C040
S1130F60AB9B02C0AB9801C0AB9A6EEF680DC70192
S1130F70C4DCF701E00FF11FDF0111972C9130E081
S1130F80322F222732974081242B8217930709F0AE
S1130F90B5C089E054DD822D52DDF70182818A30AB
S1130FA009F07AC02DB73EB73D8B2C8BC80105974D
S1130FB0EDB7FEB7E81BF90B0FB6F894FEBF0FBEF2
S1130FC0EDBF2DB73EB72F5F3F4F590118161906D5
S1130FD064F4F7013396D901025011090E0D1F1D57
S1130FE081918D93E017F107D9F7F50125812295B9
S1130FF02F708481F0E18F9FC0011124822B909384
S11310008300809382001BEF180D612FC50175DCEE
S11310109C01422D612FC501A2DC6091670070E044
S1131020762F6627072E000C880B990BC5D29B01DF
S1131030AC0160E070E081EE9AE423D29B01AC0144
S113104060E070E08AE794E41CD220E030E040ECF9
S113105052E466D320E030E040EF51E4AAD120E02E
S113106030E041EE5AE45CD320E038EC4FEA5BE434
S113107008D26FD27093850060938400109265004B
S113108010926400109266002C893D890FB6F89482
S11310903EBF0FBE2DBF36C08E31A1F586E08093D2
S11310A0990089838EE18A83F70183818B8384810C
S11310B08C8364E08889998920DC8D839E83809168
S11310C09900882381F0E889F98980E090E02191F2
S11310D0DC01A65DBE4F2C9301962091990030E06F
S11310E082179307A4F380916D0061E070E090E0B3
S11310F031DD10926C0010926B0004C089E09FDC1B
S113110080E09DDC10927F000FB6F894DEBE0FBE27
S1131110CDBE80919500882309F45ACD80911601A3
S1131120823008F487C0CDB6DEB670919700472FA1
S113113050E02DB73EB7241B350B0FB6F8943EBFD5
S11311400FBE2DBF0DB71EB70F5F1F4FCA01181674
S113115019068CF4F80120E030E0DC01872FBD0192
S1131160D901AA5EBE4F9C9191932F5F3F4F2617E2
S11311703707B1F7782FF80181818F3121F081325F
S113118009F448C052C0400F511FFA013197E08062
S1131190F12CFE2CEE2431978081E82A6EEF670F44
S11311A0C801ABDB8E159F0549F527E839E7309375
S11311B06C0020936B0083E28983F80182818A8327
S11311C062E08889998999DB8B839C83809199005B
S11311D0882371F0DE011196F30180E090E02D91F7
S11311E0219301962091990030E082179307BCF374
S11311F084E080937E001092620017C086E2F301BF
S1131200808311821282138284E080937E00109284
S113121062000BC087E2F301808311821282138281
S113122084E080937E00109262000FB6F894DEBED4
S11312300FBECDBE10929500C5CC1F920F920FB673
S11312400F9211248F939F93AF93BF93EF93FF93C8
S113125081B1E82FE87F8E2F90E0FC013897E934C4
S1131260F10508F097C0ED5EFF4F0994809194005A
S1131270811106C08091F70083B985EC86BF8AC0CE
S113128080919800882309F485C08091F7008F5FCE
S113129083B985EC86BF7EC090919A0080919900B5
S11312A0981760F080919800882329F01092940098
S11312B085EA86BF6FC085E986BF6CC0E0919A005D
S11312C0F0E0E65DFE4F808183B980919A008F5FE4
S11312D080939A0085EC86BF5DC085E986BF5AC0BD
S11312E090919A0080919900981738F4E0919A00AF
S11312F0F0E0E65DFE4F808183B980919A008F5FB4
S113130080939A0090919A0080919900891708F02F
S113131041C080919800882331F081E0809394004B
S113132085EA86BF37C085E986BF34C0109296002F
S11313301092950085EC86BF2DC080919600811196
S11313400AC083B18F3F21F083B18093970003C01B
S113135081E0809397009091960080919700981770
S113136048F4E0919600F0E083B1EA5EFE4F80839A
S113137085EC86BF809196008F5F80939600909154
S1131380960080919700981728F081E0809395004B
S113139085E986BF86B7806886BFFF91EF91BF91CC
S11313A0AF919F918F910F900FBE0F901F90189542
S11313B05058BB27AA270ED075C166D130F06BD127
S11313C020F031F49F3F11F41EF45BC10EF4E0955C
S11313D0E7FB51C1E92F77D180F3BA17620773078E
S11313E08407950718F071F49EF58FC10EF4E0950B
S11313F00B2EBA2FA02D0B01B90190010C01CA01CB
S1131400A0011124FF27591B99F0593F50F4503E75
S113141068F11A16F040A22F232F342F4427585F67
S1131420F3CF469537952795A795F0405395C9F77F
S11314307EF41F16BA0B620B730B840BBAF0915037
S1131440A1F0FF0FBB1F661F771F881FC2F70EC0D6
S1131450BA0F621F731F841F48F4879577956795A9
S1131460B795F7959E3F08F0B3CF9395880F08F092
S11314709927EE0F979587950895D9D008F481E0C0
S113148008950CD00FC107D140F0FED030F021F404
S11314905F3F19F0F0C0511139C1F3C014D198F372
S11314A09923C9F35523B1F3951B550BBB27AA27E1
S11314B062177307840738F09F5F5F4F220F331F53
S11314C0441FAA1FA9F333D00E2E3AF0E0E830D01F
S11314D091505040E695001CCAF729D0FE2F27D022
S11314E0660F771F881FBB1F261737074807AB07F0
S11314F0B0E809F0BB0B802DBF01FF2793585F4F65
S11315002AF09E3F510568F0B6C000C15F3FECF37E
S1131510983EDCF3869577956795B795F7959F5F29
S1131520C9F7880F911D9695879597F90895E1E07D
S1131530660F771F881FBB1F621773078407BA07DC
S113154020F0621B730B840BBA0BEE1F88F7E09537
S1131550089504D06894B111D9C00895BCD088F01E
S11315609F5790F0B92F9927B751A0F0D1F0660F8B
S1131570771F881F991F1AF0BA95C9F712C0B130A6
S113158081F0C3D0B1E00895C0C0672F782F8827B9
S1131590B85F39F0B93FCCF3869577956795B395E5
S11315A0D9F73EF490958095709561957F4F8F4F54
S11315B09F4F0895E89409C097FB3EF49095809559
S11315C0709561957F4F8F4F9F4F9923A9F0F92F05
S11315D096E9BB279395F695879577956795B79583
S11315E0F111F8CFFAF4BB0F11F460FF1BC06F5F69
S11315F07F4F8F4F9F4F16C0882311F096E911C07B
S1131600772321F09EE8872F762F05C0662371F09B
S113161096E8862F70E060E02AF09A95660F771FAF
S1131620881FDAF7880F9695879597F90895990F8B
S11316300008550FAA0BE0E8FEEF16161706E80798
S1131640F907C0F012161306E407F50798F0621BB9
S1131650730B840B950B39F40A2661F0232B242B8E
S1131660252B21F408950A2609F4A140A6958FEFAD
S1131670811D811D089597F99F6780E870E060E0FF
S113168008959FEF80EC089500240A941616170617
S113169018060906089500240A941216130614065F
S11316A005060895092E0394000C11F4882352F0C2
S11316B0BB0F40F4BF2B11F460FF04C06F5F7F4F7A
S11316C08F4F9F4F089557FD9058440F551F59F061
S11316D05F3F71F04795880F97FB991F61F09F3F1B
S11316E079F087950895121613061406551FF2CF44
S11316F04695F1DF08C0161617061806991FF1CF94
S113170086957105610508940895E894BB276627BA
S11317107727CB0197F908958ADF08F48FEF0895AE
S11317200BD0C0CFB1DF28F0B6DF18F0952309F055
S1131730A2CFA7CF1124EACFC6DFA0F3959FD1F3A0
S1131740950F50E0551F629FF001729FBB27F00D6B
S1131750B11D639FAA27F00DB11DAA1F649F6627C0
S1131760B00DA11D661F829F2227B00DA11D621F0F
S1131770739FB00DA11D621F839FA00D611D221FC9
S1131780749F3327A00D611D231F849F600D211DAD
S1131790822F762F6A2F11249F5750408AF0E1F050
S11317A088234AF0EE0FFF1FBB1F661F771F881F99
S11317B091505040A9F79E3F510570F05CCFA6CFE1
S11317C05F3FECF3983EDCF3869577956795B79584
S11317D0F795E7959F5FC1F7FE2B880F911D9695AE
S10D17E0879597F90895F894FFCF58
S11317EA606DFFFF606DFF06FF010087797864531F
S10F17FA6D61727450617274734B500086
S9030000FC
