:100000005BC075C074C073C072C071C070C06FC077
:100010006EC06EC06CC0DEC46AC069C068C067C014
:1000200066C016C564C044C5CBC5CAC5C9C5C8C568
:10003000C7C5C6C5C5C53CC5C3C5C2C5C1C5C0C504
:10004000BFC5BEC5BDC54AC5BBC5BAC5B9C5B8C51E
:10005000B7C5B6C5B5C560C5B3C5B2C5B1C5B0C530
:10006000AFC5AEC5ADC55BC5ABC5AAC5A9C5A8C55D
:10007000A7C5A6C5A5C574C5A3C5A2C5A1C5A0C56C
:100080009FC59EC59DC59CC59BC59AC599C598C56C
:1000900097C596C595C567C593C592C591C590C5C9
:1000A0008FC58EC58DC58CC58BC58AC589C588C5CC
:1000B00087C586C585C55EC511241FBECFE5D4E0C2
:1000C000DEBFCDBF12E0A0E6B0E0EAE9FEE002C08C
:1000D00005900D92A636B107D9F723E0A6E6B2E067
:1000E00001C01D92AD34B207E1F73CD3D4C688CF2E
:1000F0001F920F920FB60F9211242F933F934F939D
:100100005F936F937F938F939F93AF93BF93EF937F
:10011000FF9340916B0250916C0260916D0270915F
:100120006E028091670290916802A0916902B0917D
:100130006A0284179507A607B7079CF080916B02A7
:1001400090916C02A0916D02B0916E020196A11D7A
:10015000B11D80936B0290936C02A0936D02B093DB
:100160006E0280916F02882309F46FC0809175023E
:100170008F5F80937502909175028091600298174D
:1001800008F483C180917202882309F449C08091E8
:100190007302209170023091710240E1849FC0018E
:1001A000112428173907E4F58091700290917102AB
:1001B00099230CF40F96FC01F595E795F595E795D5
:1001C000F595E795F595E795EE0FFF1FE350FD4F89
:1001D0002081318180917002909171028F709078AE
:1001E000992324F40197806F9F6F019641E050E0BE
:1001F000BA0102C0660F771F8A95E2F7CB0182230E
:100200009323892B11F0979A01C0979880917002DF
:10021000909171020196909371028093700212C0C6
:1002200080917302209170023091710270E1879F7A
:10023000C0011124281739072CF0979810927202E8
:1002400010926F021092750220C1809175028F5F2B
:1002500080937502869B11C08091770290917802FD
:1002600080369D4674F480917702909178020196D1
:10027000909378028093770204C0109278021092D3
:10028000770280916002209177023091780290E0AD
:10029000AC01440F551F880F991F880F991F880FB5
:1002A000991F840F951F821793073CF48091760263
:1002B000811103C081E080937602809176028130C3
:1002C000E9F486991BC08FEF9FE790938502809396
:1002D00084028FE090E090937A02809379028FEF0E
:1002E0008093610287E08093750280916002869519
:1002F0008F5F8093750282E0809376028091760210
:10030000823009F0C2C09091750280916002981706
:1003100008F4BBC0869B37C02091790230917A02E5
:100320008091790290917A0299230CF40F96959519
:100330008795959587959595879595958795FC01D2
:10034000EE0FFF1FEC57FD4F408151812F70307829
:10035000332334F421503109206F3F6F2F5F3F4F1B
:1003600061E070E0FB0102C0EE0FFF1F2A95E2F78B
:100370009F01242B352B880F991FFC01EC57FD4F53
:100380003183208338C02091790230917A028091A4
:10039000790290917A0299230CF40F96959587959E
:1003A000959587959595879595958795FC01EE0F81
:1003B000FF1FEC57FD4F608171812F703078332320
:1003C00034F421503109206F3F6F2F5F3F4F41E0E0
:1003D00050E0FA0102C0EE0FFF1F2A95E2F79F01DD
:1003E0002095309526233723880F991FFC01EC5761
:1003F000FD4F318320838091790290917A0201969A
:1004000090937A02809379024091790250917A0216
:1004100020916102CA0199230CF40F969595879556
:1004200095958795959587959595879530E0821751
:1004300093071CF083E0809376028091790290917B
:100440007A028097409728F48091740281608093AB
:1004500074028091790290917A02805491094097B8
:1004600028F48091740282608093740280917902F2
:1004700090917A0280569109409728F480917402F5
:1004800084608093740210927502FF91EF91BF9186
:10049000AF919F918F917F916F915F914F913F911C
:1004A0002F910F900FBE0F901F901895CF93DF9351
:1004B0004FE050E027E030E060E070E090E0A1E045
:1004C000B0E0FC01022E02C0F595E7950A94E2F730
:1004D000E0FF0AC0FD01042E02C0EE0FFF1F0A94C8
:1004E000E2F76E2B7F2B0BC0F901EE0FFF1FED0122
:1004F00002C0CC0FDD1FEA95E2F76C2B7D2B21505B
:100500003109425051092F3FDFEF3D07D1F6CB01B2
:10051000DF91CF9108950F931F93CF93DF931092A4
:10052000660261E070E020E030E0C0E0E1E0F0E091
:10053000D1E000E010E0A901440F551FDF0102C027
:10054000AA0FBB1F4A95E2F7AD0148235923452B5B
:10055000A1F4AF01062E02C0440F551F0A94E2F722
:1005600048235923452BC9F0AF01022E02C0440F86
:10057000551F0A94E2F7C42B12C0AF01DF01062E0B
:1005800002C0AA0FBB1F0A94E2F7AB2B11F0402F59
:10059000512F48235923452B11F4D09366022F5F26
:1005A0003F4F6E5F7F4F2830310529F68C2FDF914A
:1005B000CF911F910F910895EF92FF921F93CF93C8
:1005C000DF93EC018091610290E004971816190600
:1005D000ECF420E030E010E07E01E10EF11C220F8F
:1005E000331FF901E857FD4F8081918194DFF701B6
:1005F0008083809166021F5F212F30E0409161026D
:1006000050E0445051092417350734F3E09161025A
:10061000F0E0EE0FFF1FE058FD4F808191817BDFFE
:10062000C82FE0916102F0E0EE0FFF1FEE57FD4F83
:100630008081918170DF2C2F30E0A901582BCA01F5
:10064000DF91CF911F91FF90EF9008956623C9F03D
:10065000DC019C01260F311DB90180E090E0292FBB
:1006600033274D91FC01E427FF27EE0FFF1FE05ACF
:10067000FF4F8081918182279327A617B70779F7CB
:10068000089580E090E0089581E080936F021092D9
:10069000710210927002809372020895FF920F937C
:1006A0001F93CF93DF93F82ECDEFD2E08FEF9FE72C
:1006B0009983888381E191E19B838A83009162021F
:1006C00010916302C80188279F70892F8068EEDE31
:1006D0002C813D81822B932B9D838C83802FE6DEA2
:1006E0009F838E838F2DE2DE9987888785E08093B4
:1006F0007302CADFDF91CF911F910F91FF90089590
:10070000E199FECF9FBB8EBB6DBBF894E29AE19A54
:1007100078940895E199FECF9FBB8EBBE09A8DB38C
:100720000895CF938091640282B988E680B985E408
:1007300086BF83B7816083BF89B7816089BFA39A71
:100740008F9A8AE090E0E6DFC82F8BE090E0E2DF4E
:100750002C2F30E0382B3093630220936202789480
:10076000CF910895CF93DF93CDB7DEB7DADF04E8FA
:1007700012E0612C712C0F2EF2E68F2EF2E09F2EEC
:10078000F02D8091670290916802A0916902B0916A
:100790006A02892B8A2B8B2B11F140916B025091AD
:1007A0006C0260916D0270916E028091670290916F
:1007B0006802A0916902B0916A0284179507A607A2
:1007C000B7076CF4AB9B02C0AB9801C0AB9A109218
:1007D0006B0210926C0210926D0210926E02809168
:1007E000740280FF13C0F8018281938181319141AD
:1007F00041F01092610210927602109278021092EB
:100800007702809174028E7F8093740280917402CB
:1008100081FF1CC0F801848195817DDEF82EF801EE
:100820008681978178DE2F2D30E0382B2D3C3B4A96
:1008300041F01092610210927602109278021092AA
:100840007702809174028D7F80937402809174028C
:1008500082FF1CC0F801808591855DDEF82EF801CD
:100860008285938558DE8F1104C08C5F809361026E
:1008700008C01092610210927602109278021092D3
:100880007702809174028B7F80937402809176024C
:10089000833009F089C0CDB6DEB650906102852D57
:1008A00090E004972DB73EB7281B390B0FB6F8948C
:1008B0003EBF0FBE2DBF8DB79EB701967C01B30121
:1008C0007BDE5C01109276026CEF650DC701BEDE27
:1008D000AC01F701958192959F702481F0E12F9FE3
:1008E00090011124292B80916202909163022817B4
:1008F000390709F052C0A416B50609F04CC081E0D2
:10090000CDDEF701258122952F708481F0E18F9F44
:10091000C0011124822B2091620230916302821760
:10092000930711F0892BC9F5F701A781A1110AC01E
:1009300010926702109268021092690210926A0285
:10094000AB982BC0A13051F410926702109268024C
:100950001092690210926A02AB9A1FC0AF3FE9F091
:10096000B0E0129720E438E36ED225E030E040E0BA
:1009700050E041D2209367023093680240936902AD
:1009800050936A0210926B0210926C0210926D02E8
:1009900010926E0202C080E081DE109276020FB6E5
:1009A000F894DEBE0FBECDBE80917B02882309F491
:1009B000E8CEF40160818AE090E0A2DE60916302FB
:1009C0008BE090E09DDE10927B02DBCE5D9BFECF44
:1009D0008CB908951F920F920FB60F9211242F9386
:1009E0003F934F935F936F937F938F939F93AF93B7
:1009F000BF93EF93FF938CB1833671F480916202C1
:100A0000E5DF80916302E2DF8AE090E083DEDEDFF3
:100A10008BE090E07FDEDADFFF91EF91BF91AF9145
:100A20009F918F917F916F915F914F913F912F9106
:100A30000F900FBE0F901F90189510927C0285EAC0
:100A400086BF089581E080937C0285EA86BF089581
:100A50001F920F920FB60F921124AF92BF92CF92B6
:100A6000DF92EF92FF920F931F932F933F934F9339
:100A70005F936F937F938F939F93AF93BF93EF9306
:100A8000FF93CF93DF93CDB7DEB72597DEBFCDBF02
:100A90000DB71EB781B1E82FE87F8E2F90E0FC01E3
:100AA0003897E934F10508F08BC0ED5EFF4F0994EB
:100AB00080917C02811106C08091D40283B985ECBB
:100AC00086BF7EC080918102882309F479C080911D
:100AD000D4028F5F83B985EC86BF72C09091830288
:100AE00080918202981748F080918102882311F04A
:100AF000A4DF66C085E986BF63C0E0918302F0E0B1
:100B0000E751FD4F808183B9809183028F5F80938D
:100B1000830285EC86BF54C085E986BF51C09091A1
:100B2000830280918202981738F4E0918302F0E00A
:100B3000E751FD4F808183B9809183028F5F80935D
:100B4000830290918302809182028917C8F5809177
:100B50008102882311F076DF33C085E986BF30C07B
:100B600085E986BF2DC010927F0210927E0285EC2F
:100B700086BF26C080917F02811103C083B180931C
:100B8000800290917F0280918002981748F4E09152
:100B90007F02F0E083B1EB52FD4F808385EC86BF8E
:100BA00080917F028F5F80937F0290917F0280917E
:100BB0008002981728F081E080937E0285E986BF45
:100BC00081B1887F883AC1F128F4803651F08038AD
:100BD00079F0E9C0883B09F4BBC0883C09F4E1C066
:100BE000E2C010927F0210927E0285EC86BFDBC0CD
:100BF00080917F02811103C083B180938002909124
:100C00007F0280918002981738F4E0917F02F0E033
:100C100083B1EB52FD4F808380917F028F5F809381
:100C20007F0290917F0280918002981708F4BBC0E8
:100C300081E080937E02B7C08091D502823008F4B3
:100C4000B2C0ADB6BEB660918002E62EF12C8DB773
:100C50009EB78E199F090FB6F8949EBF0FBE8DBF29
:100C6000EDB7FEB731966F01A7011416150664F4AF
:100C700020E030E0D901AB52BD4F8C9181932F5FC2
:100C80003F4F24173507B1F78091D6028E3109F016
:100C900059C081E080937D026250C601D7DCEC0C24
:100CA000FD1CF7013197208130E0322F2227319748
:100CB0004081242B82179307B1F5F601838190E0E0
:100CC000982F88272281822B90936302809362025F
:100CD00081E080937B0295E09093820299839FE16B
:100CE0009A838B8363E0CE010196B0DC8C839D8375
:100CF00080918202882381F0FE01319680E090E0AD
:100D00002191DC01A751BD4F2C93019620918202C5
:100D100030E082179307A4F381E0809383028091EF
:100D2000E90283B90FC081E080937D0292E0909345
:100D30008202E9EEF2E0908391E291838093830254
:100D4000808183B90FB6F894BEBE0FBEADBE2BC076
:100D500080917D02882311F190918302809182021B
:100D60009817C8F4E0918302F0E0E751FD4F8081CD
:100D700083B9209183028091820230E090E0019754
:100D80002817390711F485E886BF809183028F5FA9
:100D90008093830208C08FEF83B905C08FEF83B9BA
:100DA00002C085EC86BF86B7806886BF0FB6F89410
:100DB0001EBF0FBE0DBF0F900F900F900F900F90A2
:100DC000DF91CF91FF91EF91BF91AF919F918F9163
:100DD0007F916F915F914F913F912F911F910F9153
:100DE000FF90EF90DF90CF90BF90AF900F900FBE2D
:100DF0000F901F901895052E97FB16F400940FD0B6
:100E000057FD05D026D007FC02D046F408C0509507
:100E10004095309521953F4F4F4F5F4F08959095E6
:100E20008095709561957F4F8F4F9F4F0895A29F3A
:100E3000B001B39FC001A39F01D0B29F700D811D6F
:100E40001124911D0895F3DFB7FF0895821B930BC2
:100E50000895A1E21A2EAA1BBB1BFD010DC0AA1FFB
:100E6000BB1FEE1FFF1FA217B307E407F50720F013
:100E7000A21BB30BE40BF50B661F771F881F991F8E
:100E80001A9469F760957095809590959B01AC01D7
:0A0E9000BD01CF010895F894FFCFD3
:100E9A000000C1C081C1400101C3C003800241C238
:100EAA0001C6C006800741C70005C1C581C4400408
:100EBA0001CCC00C800D41CD000FC1CF81CE400EB8
:100ECA00000AC1CA81CB400B01C9C009800841C8C8
:100EDA0001D8C018801941D9001BC1DB81DA401A38
:100EEA00001EC1DE81DF401F01DDC01D801C41DC08
:100EFA000014C1D481D5401501D7C017801641D638
:100F0A0001D2C012801341D30011C1D181D0401047
:100F1A0001F0C030803141F10033C1F381F2403237
:100F2A000036C1F681F7403701F5C035803441F407
:100F3A00003CC1FC81FD403D01FFC03F803E41FEB7
:100F4A0001FAC03A803B41FB0039C1F981F84038C7
:100F5A000028C1E881E9402901EBC02B802A41EA37
:100F6A0001EEC02E802F41EF002DC1ED81EC402C07
:100F7A0001E4C024802541E50027C1E781E6402637
:100F8A000022C1E281E3402301E1C021802041E047
:100F9A0001A0C060806141A10063C1A381A2406237
:100FAA000066C1A681A7406701A5C065806441A407
:100FBA00006CC1AC81AD406D01AFC06F806E41AEB7
:100FCA0001AAC06A806B41AB0069C1A981A84068C7
:100FDA000078C1B881B9407901BBC07B807A41BA37
:100FEA0001BEC07E807F41BF007DC1BD81BC407C07
:100FFA0001B4C074807541B50077C1B781B6407637
:10100A000072C1B281B3407301B1C071807041B046
:10101A000050C190819140510193C0538052419236
:10102A000196C056805741970055C1958194405406
:10103A00019CC05C805D419D005FC19F819E405EB6
:10104A00005AC19A819B405B0199C05980584198C6
:10105A000188C04880494189004BC18B818A404A36
:10106A00004EC18E818F404F018DC04D804C418C06
:10107A000044C184818540450187C0478046418636
:10108A000182C042804341830041C1818180404046
:06109A0006FF02007800D1
:00000001FF
