:1000000012C01FC12BC02AC029C028C027C026C0CB
:1000100025C025C023C051C221C020C01FC01EC0A2
:100020001DC01CC01BC011241FBECFE5D4E0DEBF25
:10003000CDBF12E0A0E6B0E0E6E7F6E002C0059032
:100040000D92A236B107D9F723E0A2E6B2E001C0D3
:100050001D92AC39B207E1F7D0D10BC3D1CF1F92BB
:100060000F920FB60F9211242F933F934F935F93EC
:100070006F937F938F939F93AF93BF93EF93FF9370
:10008000809162028F5F809362028091620282306F
:1000900008F492C010926202809166028F5F809392
:1000A00066029091660280916102981708F456C02A
:1000B00080916902882309F43FC020916702309142
:1000C000680280916A0240E1849FC00111242817D0
:1000D000390794F5809167029091680297FD0F9619
:1000E000FC0184E0F595E7958A95E1F7EE0FFF1F97
:1000F000EC52FD4F2081318180916702909168021E
:1001000060E170E0A3D241E050E0BA0102C0660FA6
:10011000771F8A95E2F726233723232B11F0979A2E
:1001200001C0979880916702909168020196909320
:1001300068028093670210C02091670230916802C4
:1001400080916A0270E1879FC00111242817390746
:100150001CF09798109269021092660280916E02CC
:1001600090916F02019690936F0280936E0280913E
:100170006E0290916F02813492402CF08FEF809349
:1001800060021092650260916C0270916D02072E00
:10019000000C880B990BE3D120E030E044E355E4F8
:1001A000D8D118164CF080916C0290916D02019696
:1001B00090936D0280936C02FF91EF91BF91AF918C
:1001C0009F918F917F916F915F914F913F912F916F
:1001D0000F900FBE0F901F901895CF93DF936FE095
:1001E00070E047E050E020E030E090E0E1E0F0E057
:1001F000DC01042E02C0B595A7950A94E2F7A0FF92
:1002000008C0DF01062E02C0AA0FBB1F0A94E2F746
:100210000AC0DA01AA0FBB1FEF0102C0CC0FDD1F1D
:10022000AA95E2F7DE012A2B3B2B4150510962507F
:1002300071094F3FDFEF5D07D9F6C901DF91CF911B
:1002400008951F920F920FB60F9211242F933F9390
:100250004F935F936F937F938F939F93AF93BF93CE
:10026000EF93FF9360916C0270916D02072E000C6A
:10027000880B990B74D120E030E044E355E4CED1F3
:1002800018164CF410926D0210926C02829B03C0FF
:1002900081E080936B02FF91EF91BF91AF919F91AD
:1002A0008F917F916F915F914F913F912F910F901F
:1002B0000FBE0F901F901895CF93DF93AC01DC0118
:1002C00080E090E070E09D01241B350B2617370776
:1002D00084F4C92FDD272D91FC01E227FF27EE0FC3
:1002E000FF1FE05AFF4F20813181C9018C279D27D4
:1002F000EACFDF91CF910895CF92DF92EF92FF92F4
:100300000F931F93CF93DF93F82EE92E162F8FEFC5
:100310009FE79093D5028093D40281E191E190937D
:10032000D7028093D6020F2DCF2DDE2D52E0C52EA1
:10033000D12C8C2F801B811768F489914EDFF60138
:10034000EE0FFF1FEC52FD4F918380838FEFC81A91
:10035000D80AEFCF612F8F2D9E2DAEDFD92EC12F62
:10036000D0E07E0192E0E90EF11C37DFF701EE0FDD
:10037000FF1FEC52FD4F9183808323968D2D2DDF3F
:10038000CC0FDD1FCC52DD4F998388831C5F109307
:100390006A02109268021092670281E080936902FB
:1003A000DF91CF911F910F91FF90EF90DF90CF9051
:1003B00008953E9A83E886B908958FE289B910BC02
:1003C00080B5866880BD8AB188698AB9089583B787
:1003D000816083BF89B7816089BF8BB780648BBF21
:1003E00085B7816085BF8F9AA59AE7DFE2DF7894B1
:1003F00008955D9BFECF8CB90895CF93DF93CDB761
:10040000DEB728970FB6F894DEBF0FBECDBFDFDF93
:1004100089EDC82E9DECB92E2BEAA22E38E0D32E02
:100420004DE4942E53E2852E15E280916B028823D1
:10043000B9F080916902811113C0AD9B02C0AD98E3
:1004400001C0AD9AB982AA82DB82DC829D828E8253
:10045000CF82188768E0CE0101964EDF10926B02C2
:1004600080916302882309F310916402612F80E771
:1004700092E022DF7C01612F70E0FB01E259FD4F29
:100480000081FB01E159FD4F808110E0182BCB0169
:10049000B0DFC8019927ADDF812F90E0AADFC70147
:1004A0009927A7DF8F2D90E0A4DFAD9B02C0AD9808
:1004B00001C0AD9A10926302B7CF1F920F920FB690
:1004C0000F9211248F939F93EF93FF939091650266
:1004D000809160029817D0F4E0916502F0E08CB151
:1004E000E059FD4F8083809165028F5F80936502A4
:1004F00010926F0210926E029091650280916002DC
:10050000981304C080916002809364028091650218
:10051000823069F49091700280917102981305C045
:10052000809170028093600202C0109260029091EC
:10053000650280916002981718F081E08093630251
:10054000FF91EF919F918F910F900FBE0F901F9091
:10055000189540D008F481E00895E89409C097FB0D
:100560003EF490958095709561957F4F8F4F9F4F8A
:100570009923A9F0F92F96E9BB279395F6958795CE
:1005800077956795B795F111F8CFFAF4BB0F11F491
:1005900060FF1BC06F5F7F4F8F4F9F4F16C0882338
:1005A00011F096E911C0772321F09EE8872F762F6E
:1005B00005C0662371F096E8862F70E060E02AF0AF
:1005C0009A95660F771F881FDAF7880F969587959B
:1005D00097F90895990F0008550FAA0BE0E8FEEF70
:1005E00016161706E807F907C0F012161306E407F7
:1005F000F50798F0621B730B840B950B39F40A26F0
:1006000061F0232B242B252B21F408950A2609F4CD
:10061000A140A6958FEF811D811D0895DBDF08F4B1
:100620008FEF0895AA1BBB1B51E107C0AA1FBB1F78
:10063000A617B70710F0A61BB70B881F991F5A956E
:10064000A9F780959095BC01CD01089597FB072EE1
:1006500016F4009406D077FD08D0E4DF07FC05D03F
:100660003EF4909581959F4F0895709561957F4FC9
:060670000895F894FFCF8D
:100676000000C1C081C1400101C3C003800241C264
:1006860001C6C006800741C70005C1C581C4400434
:1006960001CCC00C800D41CD000FC1CF81CE400EE4
:1006A600000AC1CA81CB400B01C9C009800841C8F4
:1006B60001D8C018801941D9001BC1DB81DA401A64
:1006C600001EC1DE81DF401F01DDC01D801C41DC34
:1006D6000014C1D481D5401501D7C017801641D664
:1006E60001D2C012801341D30011C1D181D0401074
:1006F60001F0C030803141F10033C1F381F2403264
:100706000036C1F681F7403701F5C035803441F433
:10071600003CC1FC81FD403D01FFC03F803E41FEE3
:1007260001FAC03A803B41FB0039C1F981F84038F3
:100736000028C1E881E9402901EBC02B802A41EA63
:1007460001EEC02E802F41EF002DC1ED81EC402C33
:1007560001E4C024802541E50027C1E781E6402663
:100766000022C1E281E3402301E1C021802041E073
:1007760001A0C060806141A10063C1A381A2406263
:100786000066C1A681A7406701A5C065806441A433
:10079600006CC1AC81AD406D01AFC06F806E41AEE3
:1007A60001AAC06A806B41AB0069C1A981A84068F3
:1007B6000078C1B881B9407901BBC07B807A41BA63
:1007C60001BEC07E807F41BF007DC1BD81BC407C33
:1007D60001B4C074807541B50077C1B781B6407663
:1007E6000072C1B281B3407301B1C071807041B073
:1007F6000050C190819140510193C0538052419263
:100806000196C056805741970055C1958194405432
:10081600019CC05C805D419D005FC19F819E405EE2
:10082600005AC19A819B405B0199C05980584198F2
:100836000188C04880494189004BC18B818A404A62
:10084600004EC18E818F404F018DC04D804C418C32
:100856000044C184818540450187C0478046418662
:100866000182C042804341830041C1818180404072
:02087600FF0C75
:00000001FF
